{
  "contractName": "OceanToken",
  "abi": [
    {
      "inputs": [
        {
          "internalType": "uint256",
          "name": "_cap",
          "type": "uint256"
        },
        {
          "internalType": "uint256",
          "name": "amount",
          "type": "uint256"
        }
      ],
      "stateMutability": "payable",
      "type": "constructor"
    },
    {
      "inputs": [
        {
          "internalType": "address",
          "name": "spender",
          "type": "address"
        },
        {
          "internalType": "uint256",
          "name": "allowance",
          "type": "uint256"
        },
        {
          "internalType": "uint256",
          "name": "needed",
          "type": "uint256"
        }
      ],
      "name": "ERC20InsufficientAllowance",
      "type": "error"
    },
    {
      "inputs": [
        {
          "internalType": "address",
          "name": "sender",
          "type": "address"
        },
        {
          "internalType": "uint256",
          "name": "balance",
          "type": "uint256"
        },
        {
          "internalType": "uint256",
          "name": "needed",
          "type": "uint256"
        }
      ],
      "name": "ERC20InsufficientBalance",
      "type": "error"
    },
    {
      "inputs": [
        {
          "internalType": "address",
          "name": "approver",
          "type": "address"
        }
      ],
      "name": "ERC20InvalidApprover",
      "type": "error"
    },
    {
      "inputs": [
        {
          "internalType": "address",
          "name": "receiver",
          "type": "address"
        }
      ],
      "name": "ERC20InvalidReceiver",
      "type": "error"
    },
    {
      "inputs": [
        {
          "internalType": "address",
          "name": "sender",
          "type": "address"
        }
      ],
      "name": "ERC20InvalidSender",
      "type": "error"
    },
    {
      "inputs": [
        {
          "internalType": "address",
          "name": "spender",
          "type": "address"
        }
      ],
      "name": "ERC20InvalidSpender",
      "type": "error"
    },
    {
      "anonymous": false,
      "inputs": [
        {
          "indexed": true,
          "internalType": "address",
          "name": "owner",
          "type": "address"
        },
        {
          "indexed": true,
          "internalType": "address",
          "name": "spender",
          "type": "address"
        },
        {
          "indexed": false,
          "internalType": "uint256",
          "name": "value",
          "type": "uint256"
        }
      ],
      "name": "Approval",
      "type": "event"
    },
    {
      "anonymous": false,
      "inputs": [
        {
          "indexed": true,
          "internalType": "address",
          "name": "from",
          "type": "address"
        },
        {
          "indexed": true,
          "internalType": "address",
          "name": "to",
          "type": "address"
        },
        {
          "indexed": false,
          "internalType": "uint256",
          "name": "value",
          "type": "uint256"
        }
      ],
      "name": "Transfer",
      "type": "event"
    },
    {
      "inputs": [],
      "name": "OwnerTokens",
      "outputs": [
        {
          "internalType": "uint256",
          "name": "",
          "type": "uint256"
        }
      ],
      "stateMutability": "view",
      "type": "function"
    },
    {
      "inputs": [
        {
          "internalType": "address",
          "name": "owner",
          "type": "address"
        },
        {
          "internalType": "address",
          "name": "spender",
          "type": "address"
        }
      ],
      "name": "allowance",
      "outputs": [
        {
          "internalType": "uint256",
          "name": "",
          "type": "uint256"
        }
      ],
      "stateMutability": "view",
      "type": "function"
    },
    {
      "inputs": [
        {
          "internalType": "address",
          "name": "spender",
          "type": "address"
        },
        {
          "internalType": "uint256",
          "name": "value",
          "type": "uint256"
        }
      ],
      "name": "approve",
      "outputs": [
        {
          "internalType": "bool",
          "name": "",
          "type": "bool"
        }
      ],
      "stateMutability": "nonpayable",
      "type": "function"
    },
    {
      "inputs": [
        {
          "internalType": "address",
          "name": "account",
          "type": "address"
        }
      ],
      "name": "balanceOf",
      "outputs": [
        {
          "internalType": "uint256",
          "name": "",
          "type": "uint256"
        }
      ],
      "stateMutability": "view",
      "type": "function"
    },
    {
      "inputs": [
        {
          "internalType": "uint256",
          "name": "value",
          "type": "uint256"
        }
      ],
      "name": "burn",
      "outputs": [],
      "stateMutability": "nonpayable",
      "type": "function"
    },
    {
      "inputs": [
        {
          "internalType": "address",
          "name": "account",
          "type": "address"
        },
        {
          "internalType": "uint256",
          "name": "value",
          "type": "uint256"
        }
      ],
      "name": "burnFrom",
      "outputs": [],
      "stateMutability": "nonpayable",
      "type": "function"
    },
    {
      "inputs": [],
      "name": "cap",
      "outputs": [
        {
          "internalType": "uint256",
          "name": "",
          "type": "uint256"
        }
      ],
      "stateMutability": "view",
      "type": "function"
    },
    {
      "inputs": [],
      "name": "decimals",
      "outputs": [
        {
          "internalType": "uint8",
          "name": "",
          "type": "uint8"
        }
      ],
      "stateMutability": "view",
      "type": "function"
    },
    {
      "inputs": [],
      "name": "name",
      "outputs": [
        {
          "internalType": "string",
          "name": "",
          "type": "string"
        }
      ],
      "stateMutability": "view",
      "type": "function"
    },
    {
      "inputs": [],
      "name": "symbol",
      "outputs": [
        {
          "internalType": "string",
          "name": "",
          "type": "string"
        }
      ],
      "stateMutability": "view",
      "type": "function"
    },
    {
      "inputs": [],
      "name": "totalSupply",
      "outputs": [
        {
          "internalType": "uint256",
          "name": "",
          "type": "uint256"
        }
      ],
      "stateMutability": "view",
      "type": "function"
    },
    {
      "inputs": [
        {
          "internalType": "address",
          "name": "to",
          "type": "address"
        },
        {
          "internalType": "uint256",
          "name": "value",
          "type": "uint256"
        }
      ],
      "name": "transfer",
      "outputs": [
        {
          "internalType": "bool",
          "name": "",
          "type": "bool"
        }
      ],
      "stateMutability": "nonpayable",
      "type": "function"
    },
    {
      "inputs": [
        {
          "internalType": "address",
          "name": "from",
          "type": "address"
        },
        {
          "internalType": "address",
          "name": "to",
          "type": "address"
        },
        {
          "internalType": "uint256",
          "name": "value",
          "type": "uint256"
        }
      ],
      "name": "transferFrom",
      "outputs": [
        {
          "internalType": "bool",
          "name": "",
          "type": "bool"
        }
      ],
      "stateMutability": "nonpayable",
      "type": "function"
    },
    {
      "inputs": [],
      "name": "value",
      "outputs": [
        {
          "internalType": "uint256",
          "name": "",
          "type": "uint256"
        }
      ],
      "stateMutability": "view",
      "type": "function"
    },
    {
      "inputs": [
        {
          "internalType": "uint256",
          "name": "amount",
          "type": "uint256"
        }
      ],
      "name": "etherstobesent",
      "outputs": [
        {
          "internalType": "uint256",
          "name": "",
          "type": "uint256"
        }
      ],
      "stateMutability": "view",
      "type": "function"
    },
    {
      "inputs": [],
      "name": "viewInvestors",
      "outputs": [
        {
          "internalType": "address[]",
          "name": "",
          "type": "address[]"
        }
      ],
      "stateMutability": "view",
      "type": "function"
    },
    {
      "inputs": [
        {
          "internalType": "uint256",
          "name": "amount",
          "type": "uint256"
        }
      ],
      "name": "investTokens",
      "outputs": [],
      "stateMutability": "payable",
      "type": "function"
    },
    {
      "inputs": [],
      "name": "investedtokens",
      "outputs": [
        {
          "internalType": "uint256",
          "name": "",
          "type": "uint256"
        }
      ],
      "stateMutability": "view",
      "type": "function"
    },
    {
      "inputs": [
        {
          "internalType": "address payable",
          "name": "Tokeninvestor",
          "type": "address"
        },
        {
          "internalType": "uint256",
          "name": "amount",
          "type": "uint256"
        }
      ],
      "name": "withdrawInvestment",
      "outputs": [],
      "stateMutability": "payable",
      "type": "function"
    },
    {
      "inputs": [
        {
          "internalType": "address payable",
          "name": "seller",
          "type": "address"
        },
        {
          "internalType": "uint256",
          "name": "amount",
          "type": "uint256"
        }
      ],
      "name": "sellTokens",
      "outputs": [],
      "stateMutability": "payable",
      "type": "function"
    },
    {
      "inputs": [
        {
          "internalType": "uint256",
          "name": "amount",
          "type": "uint256"
        }
      ],
      "name": "buyTokens",
      "outputs": [],
      "stateMutability": "payable",
      "type": "function"
    }
  ],
  "bytecode": "0x608060405260405162002cfe38038062002cfe8339818101604052810190620000299190620004bc565b6040518060400160405280600a81526020017f4f6365616e546f6b656e000000000000000000000000000000000000000000008152506040518060400160405280600381526020017f4f435400000000000000000000000000000000000000000000000000000000008152508160039081620000a691906200075c565b508060049081620000b891906200075c565b5050503360055f6101000a81548173ffffffffffffffffffffffffffffffffffffffff021916908373ffffffffffffffffffffffffffffffffffffffff160217905550816007819055506007548162000116620001a960201b60201c565b6200012291906200086d565b111562000166576040517f08c379a00000000000000000000000000000000000000000000000000000000081526004016200015d9062000905565b60405180910390fd5b620001783382620001b260201b60201c565b806006546200018891906200086d565b600681905550620001a16006546200023c60201b60201c565b505062000a4e565b5f600254905090565b5f73ffffffffffffffffffffffffffffffffffffffff168273ffffffffffffffffffffffffffffffffffffffff160362000225575f6040517fec442f050000000000000000000000000000000000000000000000000000000081526004016200021c919062000968565b60405180910390fd5b620002385f83836200025c60201b60201c565b5050565b806802b5e3af16b1880000620002539190620009b0565b60088190555050565b5f73ffffffffffffffffffffffffffffffffffffffff168373ffffffffffffffffffffffffffffffffffffffff1603620002b0578060025f828254620002a391906200086d565b9250508190555062000381565b5f805f8573ffffffffffffffffffffffffffffffffffffffff1673ffffffffffffffffffffffffffffffffffffffff1681526020019081526020015f20549050818110156200033c578381836040517fe450d38c0000000000000000000000000000000000000000000000000000000081526004016200033393929190620009f8565b60405180910390fd5b8181035f808673ffffffffffffffffffffffffffffffffffffffff1673ffffffffffffffffffffffffffffffffffffffff1681526020019081526020015f2081905550505b5f73ffffffffffffffffffffffffffffffffffffffff168273ffffffffffffffffffffffffffffffffffffffff1603620003ca578060025f828254039250508190555062000414565b805f808473ffffffffffffffffffffffffffffffffffffffff1673ffffffffffffffffffffffffffffffffffffffff1681526020019081526020015f205f82825401925050819055505b8173ffffffffffffffffffffffffffffffffffffffff168373ffffffffffffffffffffffffffffffffffffffff167fddf252ad1be2c89b69c2b068fc378daa952ba7f163c4a11628f55a4df523b3ef8360405162000473919062000a33565b60405180910390a3505050565b5f80fd5b5f819050919050565b620004988162000484565b8114620004a3575f80fd5b50565b5f81519050620004b6816200048d565b92915050565b5f8060408385031215620004d557620004d462000480565b5b5f620004e485828601620004a6565b9250506020620004f785828601620004a6565b9150509250929050565b5f81519050919050565b7f4e487b71000000000000000000000000000000000000000000000000000000005f52604160045260245ffd5b7f4e487b71000000000000000000000000000000000000000000000000000000005f52602260045260245ffd5b5f60028204905060018216806200057d57607f821691505b60208210810362000593576200059262000538565b5b50919050565b5f819050815f5260205f209050919050565b5f6020601f8301049050919050565b5f82821b905092915050565b5f60088302620005f77fffffffffffffffffffffffffffffffffffffffffffffffffffffffffffffffff82620005ba565b620006038683620005ba565b95508019841693508086168417925050509392505050565b5f819050919050565b5f620006446200063e620006388462000484565b6200061b565b62000484565b9050919050565b5f819050919050565b6200065f8362000624565b620006776200066e826200064b565b848454620005c6565b825550505050565b5f90565b6200068d6200067f565b6200069a81848462000654565b505050565b5b81811015620006c157620006b55f8262000683565b600181019050620006a0565b5050565b601f8211156200071057620006da8162000599565b620006e584620005ab565b81016020851015620006f5578190505b6200070d6200070485620005ab565b8301826200069f565b50505b505050565b5f82821c905092915050565b5f620007325f198460080262000715565b1980831691505092915050565b5f6200074c838362000721565b9150826002028217905092915050565b620007678262000501565b67ffffffffffffffff8111156200078357620007826200050b565b5b6200078f825462000565565b6200079c828285620006c5565b5f60209050601f831160018114620007d2575f8415620007bd578287015190505b620007c985826200073f565b86555062000838565b601f198416620007e28662000599565b5f5b828110156200080b57848901518255600182019150602085019450602081019050620007e4565b868310156200082b578489015162000827601f89168262000721565b8355505b6001600288020188555050505b505050505050565b7f4e487b71000000000000000000000000000000000000000000000000000000005f52601160045260245ffd5b5f620008798262000484565b9150620008868362000484565b9250828201905080821115620008a157620008a062000840565b5b92915050565b5f82825260208201905092915050565b7f43617020657863656564656400000000000000000000000000000000000000005f82015250565b5f620008ed600c83620008a7565b9150620008fa82620008b7565b602082019050919050565b5f6020820190508181035f8301526200091e81620008df565b9050919050565b5f73ffffffffffffffffffffffffffffffffffffffff82169050919050565b5f620009508262000925565b9050919050565b620009628162000944565b82525050565b5f6020820190506200097d5f83018462000957565b92915050565b7f4e487b71000000000000000000000000000000000000000000000000000000005f52601260045260245ffd5b5f620009bc8262000484565b9150620009c98362000484565b925082620009dc57620009db62000983565b5b828204905092915050565b620009f28162000484565b82525050565b5f60608201905062000a0d5f83018662000957565b62000a1c6020830185620009e7565b62000a2b6040830184620009e7565b949350505050565b5f60208201905062000a485f830184620009e7565b92915050565b6122a28062000a5c5f395ff3fe608060405260043610610129575f3560e01c80635a3e2eeb116100aa57806395d89b411161006e57806395d89b41146103cb578063a9059cbb146103f5578063c464fe6514610431578063dd62ed3e1461044d578063deca275114610489578063ede44fce146104a557610129565b80635a3e2eeb146102d757806366d354881461030157806370a082311461032b57806379cc67901461036757806380a2f70b1461038f57610129565b8063313ce567116100f1578063313ce56714610215578063355274ea1461023f5780633610724e146102695780633fa4f2451461028557806342966c68146102af57610129565b806306fdde031461012d578063095ea7b314610157578063105c551d1461019357806318160ddd146101af57806323b872dd146101d9575b5f80fd5b348015610138575f80fd5b506101416104cf565b60405161014e9190611991565b60405180910390f35b348015610162575f80fd5b5061017d60048036038101906101789190611a42565b61055f565b60405161018a9190611a9a565b60405180910390f35b6101ad60048036038101906101a89190611aee565b610581565b005b3480156101ba575f80fd5b506101c36108e0565b6040516101d09190611b3b565b60405180910390f35b3480156101e4575f80fd5b506101ff60048036038101906101fa9190611b54565b6108e9565b60405161020c9190611a9a565b60405180910390f35b348015610220575f80fd5b50610229610917565b6040516102369190611bbf565b60405180910390f35b34801561024a575f80fd5b5061025361091f565b6040516102609190611b3b565b60405180910390f35b610283600480360381019061027e9190611bd8565b610925565b005b348015610290575f80fd5b50610299610b2f565b6040516102a69190611b3b565b60405180910390f35b3480156102ba575f80fd5b506102d560048036038101906102d09190611bd8565b610b35565b005b3480156102e2575f80fd5b506102eb610b49565b6040516102f89190611b3b565b60405180910390f35b34801561030c575f80fd5b50610315610c0c565b6040516103229190611cba565b60405180910390f35b348015610336575f80fd5b50610351600480360381019061034c9190611cda565b610da1565b60405161035e9190611b3b565b60405180910390f35b348015610372575f80fd5b5061038d60048036038101906103889190611a42565b610de6565b005b34801561039a575f80fd5b506103b560048036038101906103b09190611bd8565b610e06565b6040516103c29190611b3b565b60405180910390f35b3480156103d6575f80fd5b506103df610e1c565b6040516103ec9190611991565b60405180910390f35b348015610400575f80fd5b5061041b60048036038101906104169190611a42565b610eac565b6040516104289190611a9a565b60405180910390f35b61044b60048036038101906104469190611aee565b610ece565b005b348015610458575f80fd5b50610473600480360381019061046e9190611d05565b61103d565b6040516104809190611b3b565b60405180910390f35b6104a3600480360381019061049e9190611bd8565b6110bf565b005b3480156104b0575f80fd5b506104b9611262565b6040516104c69190611b3b565b60405180910390f35b6060600380546104de90611d70565b80601f016020809104026020016040519081016040528092919081815260200182805461050a90611d70565b80156105555780601f1061052c57610100808354040283529160200191610555565b820191905f5260205f20905b81548152906001019060200180831161053857829003601f168201915b5050505050905090565b5f80610569611268565b905061057681858561126f565b600191505092915050565b5f600c5f3373ffffffffffffffffffffffffffffffffffffffff1673ffffffffffffffffffffffffffffffffffffffff1681526020019081526020015f205403610600576040517f08c379a00000000000000000000000000000000000000000000000000000000081526004016105f790611dea565b60405180910390fd5b80600c5f8473ffffffffffffffffffffffffffffffffffffffff1673ffffffffffffffffffffffffffffffffffffffff1681526020019081526020015f20541015610680576040517f08c379a000000000000000000000000000000000000000000000000000000000815260040161067790611e52565b60405180910390fd5b80600c5f8473ffffffffffffffffffffffffffffffffffffffff1673ffffffffffffffffffffffffffffffffffffffff1681526020019081526020015f205f8282546106cc9190611e9d565b925050819055508173ffffffffffffffffffffffffffffffffffffffff166108fc3490811502906040515f60405180830381858888f19350505050158015610716573d5f803e3d5ffd5b505f600c5f8473ffffffffffffffffffffffffffffffffffffffff1673ffffffffffffffffffffffffffffffffffffffff1681526020019081526020015f2054036108dc575f5b600a805490508110156108da578273ffffffffffffffffffffffffffffffffffffffff16600a828154811061079557610794611ed0565b5b905f5260205f20015f9054906101000a900473ffffffffffffffffffffffffffffffffffffffff1673ffffffffffffffffffffffffffffffffffffffff16036108c757600a6001600a805490506107ec9190611e9d565b815481106107fd576107fc611ed0565b5b905f5260205f20015f9054906101000a900473ffffffffffffffffffffffffffffffffffffffff16600a828154811061083957610838611ed0565b5b905f5260205f20015f6101000a81548173ffffffffffffffffffffffffffffffffffffffff021916908373ffffffffffffffffffffffffffffffffffffffff160217905550600a8054806108905761088f611efd565b5b600190038181905f5260205f20015f6101000a81549073ffffffffffffffffffffffffffffffffffffffff021916905590556108da565b80806108d290611f2a565b91505061075d565b505b5050565b5f600254905090565b5f806108f3611268565b9050610900858285611281565b61090b858585611313565b60019150509392505050565b5f6012905090565b60075481565b806008546109339190611f71565b3373ffffffffffffffffffffffffffffffffffffffff1631101561098c576040517f08c379a000000000000000000000000000000000000000000000000000000000815260040161098390611ffc565b60405180910390fd5b8060065410156109d1576040517f08c379a00000000000000000000000000000000000000000000000000000000081526004016109c890612064565b60405180910390fd5b60055f9054906101000a900473ffffffffffffffffffffffffffffffffffffffff1673ffffffffffffffffffffffffffffffffffffffff166108fc3490811502906040515f60405180830381858888f19350505050158015610a35573d5f803e3d5ffd5b50610a6160055f9054906101000a900473ffffffffffffffffffffffffffffffffffffffff1682611403565b610a6b3382611482565b600933908060018154018082558091505060019003905f5260205f20015f9091909190916101000a81548173ffffffffffffffffffffffffffffffffffffffff021916908373ffffffffffffffffffffffffffffffffffffffff16021790555080600b5f3373ffffffffffffffffffffffffffffffffffffffff1673ffffffffffffffffffffffffffffffffffffffff1681526020019081526020015f208190555080600654610b1b9190611e9d565b600681905550610b2c600654611501565b50565b60085481565b610b46610b40611268565b82611403565b50565b5f80600c5f3373ffffffffffffffffffffffffffffffffffffffff1673ffffffffffffffffffffffffffffffffffffffff1681526020019081526020015f205403610bc9576040517f08c379a0000000000000000000000000000000000000000000000000000000008152600401610bc0906120cc565b60405180910390fd5b600c5f3373ffffffffffffffffffffffffffffffffffffffff1673ffffffffffffffffffffffffffffffffffffffff1681526020019081526020015f2054905090565b606060055f9054906101000a900473ffffffffffffffffffffffffffffffffffffffff1673ffffffffffffffffffffffffffffffffffffffff163373ffffffffffffffffffffffffffffffffffffffff1614610c9d576040517f08c379a0000000000000000000000000000000000000000000000000000000008152600401610c9490611dea565b60405180910390fd5b5f600a8054905067ffffffffffffffff811115610cbd57610cbc6120ea565b5b604051908082528060200260200182016040528015610ceb5781602001602082028036833780820191505090505b5090505f5b600a80549050811015610d9957600a8181548110610d1157610d10611ed0565b5b905f5260205f20015f9054906101000a900473ffffffffffffffffffffffffffffffffffffffff16828281518110610d4c57610d4b611ed0565b5b602002602001019073ffffffffffffffffffffffffffffffffffffffff16908173ffffffffffffffffffffffffffffffffffffffff16815250508080610d9190611f2a565b915050610cf0565b508091505090565b5f805f8373ffffffffffffffffffffffffffffffffffffffff1673ffffffffffffffffffffffffffffffffffffffff1681526020019081526020015f20549050919050565b610df882610df2611268565b83611281565b610e028282611403565b5050565b5f81600854610e159190611f71565b9050919050565b606060048054610e2b90611d70565b80601f0160208091040260200160405190810160405280929190818152602001828054610e5790611d70565b8015610ea25780601f10610e7957610100808354040283529160200191610ea2565b820191905f5260205f20905b815481529060010190602001808311610e8557829003601f168201915b5050505050905090565b5f80610eb6611268565b9050610ec3818585611313565b600191505092915050565b80600b5f8473ffffffffffffffffffffffffffffffffffffffff1673ffffffffffffffffffffffffffffffffffffffff1681526020019081526020015f20541015610f4e576040517f08c379a0000000000000000000000000000000000000000000000000000000008152600401610f4590612064565b60405180910390fd5b610f588282611403565b610f8360055f9054906101000a900473ffffffffffffffffffffffffffffffffffffffff1682611482565b80600654610f919190612117565b60068190555080600b5f8473ffffffffffffffffffffffffffffffffffffffff1673ffffffffffffffffffffffffffffffffffffffff1681526020019081526020015f205f828254610fe39190611e9d565b925050819055508173ffffffffffffffffffffffffffffffffffffffff166108fc3490811502906040515f60405180830381858888f1935050505015801561102d573d5f803e3d5ffd5b50611039600654611501565b5050565b5f60015f8473ffffffffffffffffffffffffffffffffffffffff1673ffffffffffffffffffffffffffffffffffffffff1681526020019081526020015f205f8373ffffffffffffffffffffffffffffffffffffffff1673ffffffffffffffffffffffffffffffffffffffff1681526020019081526020015f2054905092915050565b806008546110cd9190611f71565b341461110e576040517f08c379a000000000000000000000000000000000000000000000000000000000815260040161110590612194565b60405180910390fd5b60055f9054906101000a900473ffffffffffffffffffffffffffffffffffffffff1673ffffffffffffffffffffffffffffffffffffffff166108fc3490811502906040515f60405180830381858888f19350505050158015611172573d5f803e3d5ffd5b5061119e60055f9054906101000a900473ffffffffffffffffffffffffffffffffffffffff1682611482565b806006546111ac9190612117565b600681905550600a33908060018154018082558091505060019003905f5260205f20015f9091909190916101000a81548173ffffffffffffffffffffffffffffffffffffffff021916908373ffffffffffffffffffffffffffffffffffffffff16021790555080600c5f3373ffffffffffffffffffffffffffffffffffffffff1673ffffffffffffffffffffffffffffffffffffffff1681526020019081526020015f208190555061125f600654611501565b50565b60065481565b5f33905090565b61127c838383600161151f565b505050565b5f61128c848461103d565b90507fffffffffffffffffffffffffffffffffffffffffffffffffffffffffffffffff811461130d57818110156112fe578281836040517ffb8f41b20000000000000000000000000000000000000000000000000000000081526004016112f5939291906121c1565b60405180910390fd5b61130c84848484035f61151f565b5b50505050565b5f73ffffffffffffffffffffffffffffffffffffffff168373ffffffffffffffffffffffffffffffffffffffff1603611383575f6040517f96c6fd1e00000000000000000000000000000000000000000000000000000000815260040161137a91906121f6565b60405180910390fd5b5f73ffffffffffffffffffffffffffffffffffffffff168273ffffffffffffffffffffffffffffffffffffffff16036113f3575f6040517fec442f050000000000000000000000000000000000000000000000000000000081526004016113ea91906121f6565b60405180910390fd5b6113fe8383836116ee565b505050565b5f73ffffffffffffffffffffffffffffffffffffffff168273ffffffffffffffffffffffffffffffffffffffff1603611473575f6040517f96c6fd1e00000000000000000000000000000000000000000000000000000000815260040161146a91906121f6565b60405180910390fd5b61147e825f836116ee565b5050565b5f73ffffffffffffffffffffffffffffffffffffffff168273ffffffffffffffffffffffffffffffffffffffff16036114f2575f6040517fec442f050000000000000000000000000000000000000000000000000000000081526004016114e991906121f6565b60405180910390fd5b6114fd5f83836116ee565b5050565b806802b5e3af16b1880000611516919061223c565b60088190555050565b5f73ffffffffffffffffffffffffffffffffffffffff168473ffffffffffffffffffffffffffffffffffffffff160361158f575f6040517fe602df0500000000000000000000000000000000000000000000000000000000815260040161158691906121f6565b60405180910390fd5b5f73ffffffffffffffffffffffffffffffffffffffff168373ffffffffffffffffffffffffffffffffffffffff16036115ff575f6040517f94280d620000000000000000000000000000000000000000000000000000000081526004016115f691906121f6565b60405180910390fd5b8160015f8673ffffffffffffffffffffffffffffffffffffffff1673ffffffffffffffffffffffffffffffffffffffff1681526020019081526020015f205f8573ffffffffffffffffffffffffffffffffffffffff1673ffffffffffffffffffffffffffffffffffffffff1681526020019081526020015f208190555080156116e8578273ffffffffffffffffffffffffffffffffffffffff168473ffffffffffffffffffffffffffffffffffffffff167f8c5be1e5ebec7d5bd14f71427d1e84f3dd0314c0f7b2291e5b200ac8c7c3b925846040516116df9190611b3b565b60405180910390a35b50505050565b5f73ffffffffffffffffffffffffffffffffffffffff168373ffffffffffffffffffffffffffffffffffffffff160361173e578060025f8282546117329190612117565b9250508190555061180c565b5f805f8573ffffffffffffffffffffffffffffffffffffffff1673ffffffffffffffffffffffffffffffffffffffff1681526020019081526020015f20549050818110156117c7578381836040517fe450d38c0000000000000000000000000000000000000000000000000000000081526004016117be939291906121c1565b60405180910390fd5b8181035f808673ffffffffffffffffffffffffffffffffffffffff1673ffffffffffffffffffffffffffffffffffffffff1681526020019081526020015f2081905550505b5f73ffffffffffffffffffffffffffffffffffffffff168273ffffffffffffffffffffffffffffffffffffffff1603611853578060025f828254039250508190555061189d565b805f808473ffffffffffffffffffffffffffffffffffffffff1673ffffffffffffffffffffffffffffffffffffffff1681526020019081526020015f205f82825401925050819055505b8173ffffffffffffffffffffffffffffffffffffffff168373ffffffffffffffffffffffffffffffffffffffff167fddf252ad1be2c89b69c2b068fc378daa952ba7f163c4a11628f55a4df523b3ef836040516118fa9190611b3b565b60405180910390a3505050565b5f81519050919050565b5f82825260208201905092915050565b5f5b8381101561193e578082015181840152602081019050611923565b5f8484015250505050565b5f601f19601f8301169050919050565b5f61196382611907565b61196d8185611911565b935061197d818560208601611921565b61198681611949565b840191505092915050565b5f6020820190508181035f8301526119a98184611959565b905092915050565b5f80fd5b5f73ffffffffffffffffffffffffffffffffffffffff82169050919050565b5f6119de826119b5565b9050919050565b6119ee816119d4565b81146119f8575f80fd5b50565b5f81359050611a09816119e5565b92915050565b5f819050919050565b611a2181611a0f565b8114611a2b575f80fd5b50565b5f81359050611a3c81611a18565b92915050565b5f8060408385031215611a5857611a576119b1565b5b5f611a65858286016119fb565b9250506020611a7685828601611a2e565b9150509250929050565b5f8115159050919050565b611a9481611a80565b82525050565b5f602082019050611aad5f830184611a8b565b92915050565b5f611abd826119b5565b9050919050565b611acd81611ab3565b8114611ad7575f80fd5b50565b5f81359050611ae881611ac4565b92915050565b5f8060408385031215611b0457611b036119b1565b5b5f611b1185828601611ada565b9250506020611b2285828601611a2e565b9150509250929050565b611b3581611a0f565b82525050565b5f602082019050611b4e5f830184611b2c565b92915050565b5f805f60608486031215611b6b57611b6a6119b1565b5b5f611b78868287016119fb565b9350506020611b89868287016119fb565b9250506040611b9a86828701611a2e565b9150509250925092565b5f60ff82169050919050565b611bb981611ba4565b82525050565b5f602082019050611bd25f830184611bb0565b92915050565b5f60208284031215611bed57611bec6119b1565b5b5f611bfa84828501611a2e565b91505092915050565b5f81519050919050565b5f82825260208201905092915050565b5f819050602082019050919050565b611c35816119d4565b82525050565b5f611c468383611c2c565b60208301905092915050565b5f602082019050919050565b5f611c6882611c03565b611c728185611c0d565b9350611c7d83611c1d565b805f5b83811015611cad578151611c948882611c3b565b9750611c9f83611c52565b925050600181019050611c80565b5085935050505092915050565b5f6020820190508181035f830152611cd28184611c5e565b905092915050565b5f60208284031215611cef57611cee6119b1565b5b5f611cfc848285016119fb565b91505092915050565b5f8060408385031215611d1b57611d1a6119b1565b5b5f611d28858286016119fb565b9250506020611d39858286016119fb565b9150509250929050565b7f4e487b71000000000000000000000000000000000000000000000000000000005f52602260045260245ffd5b5f6002820490506001821680611d8757607f821691505b602082108103611d9a57611d99611d43565b5b50919050565b7f4572726f720000000000000000000000000000000000000000000000000000005f82015250565b5f611dd4600583611911565b9150611ddf82611da0565b602082019050919050565b5f6020820190508181035f830152611e0181611dc8565b9050919050565b7f696e73756666696369656e7420696e766573746d656e740000000000000000005f82015250565b5f611e3c601783611911565b9150611e4782611e08565b602082019050919050565b5f6020820190508181035f830152611e6981611e30565b9050919050565b7f4e487b71000000000000000000000000000000000000000000000000000000005f52601160045260245ffd5b5f611ea782611a0f565b9150611eb283611a0f565b9250828203905081811115611eca57611ec9611e70565b5b92915050565b7f4e487b71000000000000000000000000000000000000000000000000000000005f52603260045260245ffd5b7f4e487b71000000000000000000000000000000000000000000000000000000005f52603160045260245ffd5b5f611f3482611a0f565b91507fffffffffffffffffffffffffffffffffffffffffffffffffffffffffffffffff8203611f6657611f65611e70565b5b600182019050919050565b5f611f7b82611a0f565b9150611f8683611a0f565b9250828202611f9481611a0f565b91508282048414831517611fab57611faa611e70565b5b5092915050565b7f496e73756666696369656e742065746865727320696e206163636f756e7400005f82015250565b5f611fe6601e83611911565b9150611ff182611fb2565b602082019050919050565b5f6020820190508181035f83015261201381611fda565b9050919050565b7f496e73756666696369656e7420616d6f756e74206f6620746f6b656e730000005f82015250565b5f61204e601d83611911565b91506120598261201a565b602082019050919050565b5f6020820190508181035f83015261207b81612042565b9050919050565b7f6e6f20696e766573746d656e74000000000000000000000000000000000000005f82015250565b5f6120b6600d83611911565b91506120c182612082565b602082019050919050565b5f6020820190508181035f8301526120e3816120aa565b9050919050565b7f4e487b71000000000000000000000000000000000000000000000000000000005f52604160045260245ffd5b5f61212182611a0f565b915061212c83611a0f565b925082820190508082111561214457612143611e70565b5b92915050565b7f496e636f72726563742045746865722076616c756500000000000000000000005f82015250565b5f61217e601583611911565b91506121898261214a565b602082019050919050565b5f6020820190508181035f8301526121ab81612172565b9050919050565b6121bb816119d4565b82525050565b5f6060820190506121d45f8301866121b2565b6121e16020830185611b2c565b6121ee6040830184611b2c565b949350505050565b5f6020820190506122095f8301846121b2565b92915050565b7f4e487b71000000000000000000000000000000000000000000000000000000005f52601260045260245ffd5b5f61224682611a0f565b915061225183611a0f565b9250826122615761226061220f565b5b82820490509291505056fea2646970667358221220d9eeed58813686cdc1cd3702e1bfada30fc7c1494643bf4988b5a40ee1e868b764736f6c63430008150033",
  "immutableReferences": {},
  "source": "// SPDX-License-Identifier: Unlicensed\r\npragma solidity ^0.8.19;\r\n\r\nimport \"@openzeppelin/contracts/token/ERC20/ERC20.sol\";\r\nimport \"@openzeppelin/contracts/token/ERC20/extensions/ERC20Burnable.sol\";\r\n\r\ncontract OceanToken is ERC20, ERC20Burnable {\r\n    address payable owner;\r\n    uint256 public OwnerTokens;\r\n    uint256 public cap;\r\n    uint256 public value;\r\n    address[] private buyers;\r\n    address[] private investors;\r\n    mapping(address => uint256) private tokenHolders;\r\n    mapping(address => uint256) private tokenInvestors;\r\n\r\n    modifier OnlyOwner() {\r\n        require(msg.sender == owner , \"Error\");\r\n        _;\r\n    }\r\n    modifier  OnlyInvestor(){\r\n        require(tokenInvestors[msg.sender]!=0, \"Error\");\r\n        _;\r\n    }\r\n\r\n    function tokenvalue(uint tokens) private {\r\n            value = (50*(10**18)/tokens);\r\n    }\r\n    function etherstobesent(uint amount) view public returns(uint){\r\n        return value*amount;\r\n    }\r\n    constructor(\r\n        uint256 _cap,\r\n        uint256 amount\r\n    ) payable ERC20(\"OceanToken\", \"OCT\") {\r\n        owner = payable(msg.sender);\r\n        cap = _cap;\r\n\r\n        require(totalSupply() + amount <= cap, \"Cap exceeded\");\r\n        _mint(msg.sender, amount);\r\n        OwnerTokens = OwnerTokens + amount;\r\n        tokenvalue(OwnerTokens);\r\n    }\r\n\r\n\r\n    function viewInvestors() public view OnlyOwner returns (address[] memory) {\r\n        address[] memory allInvestors = new address[](investors.length);\r\n\r\n        for (uint256 i = 0; i < investors.length; i++) {\r\n            allInvestors[i] = investors[i];\r\n        }\r\n \r\n        return allInvestors;\r\n    }\r\n\r\n    function investTokens(uint256 amount)\r\n        public\r\n        payable\r\n    {\r\n        require(msg.value == value * amount, \"Incorrect Ether value\");\r\n        owner.transfer(msg.value);\r\n        _mint(owner, amount);\r\n        OwnerTokens = OwnerTokens + amount;\r\n        investors.push(msg.sender);\r\n        tokenInvestors[msg.sender] = amount;\r\n        tokenvalue(OwnerTokens);\r\n    }\r\n\r\n    function investedtokens()\r\n        public\r\n        view\r\n        returns (uint256)\r\n    {\r\n        require(tokenInvestors[msg.sender]!=0,\"no investment\");\r\n        return tokenInvestors[msg.sender];\r\n    }\r\n\r\n    function withdrawInvestment(address payable Tokeninvestor, uint256 amount)\r\n        public\r\n        payable\r\n        OnlyInvestor\r\n    {\r\n        require(\r\n            tokenInvestors[Tokeninvestor] >= amount,\r\n            \"insufficient investment\"\r\n        );\r\n        tokenInvestors[Tokeninvestor] -= amount;\r\n        Tokeninvestor.transfer(msg.value);\r\n        if (tokenInvestors[Tokeninvestor] == 0) {\r\n            for (uint256 i = 0; i < investors.length; i++) {\r\n                if (investors[i] == Tokeninvestor) {\r\n                    investors[i] = investors[investors.length - 1];\r\n                    investors.pop();\r\n                    break;\r\n                }\r\n            }\r\n        }\r\n    }\r\n\r\n    function sellTokens(address payable seller, uint256 amount) public payable {\r\n        require(\r\n            tokenHolders[seller] >= amount,\r\n            \"Insufficient amount of tokens\"\r\n        );\r\n\r\n        _burn(seller, amount);\r\n        _mint(owner, amount);\r\n        OwnerTokens = OwnerTokens + amount;\r\n        tokenHolders[seller] -= amount;\r\n        seller.transfer(msg.value);\r\n        tokenvalue(OwnerTokens);\r\n    }\r\n\r\n    function buyTokens(uint256 amount) public payable {\r\n        require(\r\n            msg.sender.balance >= value * amount,\r\n            \"Insufficient ethers in account\"\r\n        );\r\n        require(OwnerTokens >= amount, \"Insufficient amount of tokens\");\r\n\r\n        owner.transfer(msg.value);\r\n\r\n        _burn(owner, amount);\r\n        _mint(msg.sender, amount);\r\n        buyers.push(msg.sender);\r\n        tokenHolders[msg.sender] = amount;\r\n        OwnerTokens = OwnerTokens - amount;\r\n        tokenvalue(OwnerTokens);\r\n    }\r\n}",
  "sourcePath": "D:\\Programmes\\Truffle\\Stack-Too-Deep\\Smart Contract\\contracts\\OceanToken.sol",
  "compiler": {
    "name": "solc",
    "version": "0.8.21+commit.d9974bed.Emscripten.clang"
  },
  "schemaVersion": "3.4.16",
  "updatedAt": "2024-01-13T22:56:39.075Z",
  "devdoc": {
    "errors": {
      "ERC20InsufficientAllowance(address,uint256,uint256)": [
        {
          "details": "Indicates a failure with the `spender`s `allowance`. Used in transfers.",
          "params": {
            "allowance": "Amount of tokens a `spender` is allowed to operate with.",
            "needed": "Minimum amount required to perform a transfer.",
            "spender": "Address that may be allowed to operate on tokens without being their owner."
          }
        }
      ],
      "ERC20InsufficientBalance(address,uint256,uint256)": [
        {
          "details": "Indicates an error related to the current `balance` of a `sender`. Used in transfers.",
          "params": {
            "balance": "Current balance for the interacting account.",
            "needed": "Minimum amount required to perform a transfer.",
            "sender": "Address whose tokens are being transferred."
          }
        }
      ],
      "ERC20InvalidApprover(address)": [
        {
          "details": "Indicates a failure with the `approver` of a token to be approved. Used in approvals.",
          "params": {
            "approver": "Address initiating an approval operation."
          }
        }
      ],
      "ERC20InvalidReceiver(address)": [
        {
          "details": "Indicates a failure with the token `receiver`. Used in transfers.",
          "params": {
            "receiver": "Address to which tokens are being transferred."
          }
        }
      ],
      "ERC20InvalidSender(address)": [
        {
          "details": "Indicates a failure with the token `sender`. Used in transfers.",
          "params": {
            "sender": "Address whose tokens are being transferred."
          }
        }
      ],
      "ERC20InvalidSpender(address)": [
        {
          "details": "Indicates a failure with the `spender` to be approved. Used in approvals.",
          "params": {
            "spender": "Address that may be allowed to operate on tokens without being their owner."
          }
        }
      ]
    },
    "events": {
      "Approval(address,address,uint256)": {
        "details": "Emitted when the allowance of a `spender` for an `owner` is set by a call to {approve}. `value` is the new allowance."
      },
      "Transfer(address,address,uint256)": {
        "details": "Emitted when `value` tokens are moved from one account (`from`) to another (`to`). Note that `value` may be zero."
      }
    },
    "kind": "dev",
    "methods": {
      "allowance(address,address)": {
        "details": "See {IERC20-allowance}."
      },
      "approve(address,uint256)": {
        "details": "See {IERC20-approve}. NOTE: If `value` is the maximum `uint256`, the allowance is not updated on `transferFrom`. This is semantically equivalent to an infinite approval. Requirements: - `spender` cannot be the zero address."
      },
      "balanceOf(address)": {
        "details": "See {IERC20-balanceOf}."
      },
      "burn(uint256)": {
        "details": "Destroys a `value` amount of tokens from the caller. See {ERC20-_burn}."
      },
      "burnFrom(address,uint256)": {
        "details": "Destroys a `value` amount of tokens from `account`, deducting from the caller's allowance. See {ERC20-_burn} and {ERC20-allowance}. Requirements: - the caller must have allowance for ``accounts``'s tokens of at least `value`."
      },
      "decimals()": {
        "details": "Returns the number of decimals used to get its user representation. For example, if `decimals` equals `2`, a balance of `505` tokens should be displayed to a user as `5.05` (`505 / 10 ** 2`). Tokens usually opt for a value of 18, imitating the relationship between Ether and Wei. This is the default value returned by this function, unless it's overridden. NOTE: This information is only used for _display_ purposes: it in no way affects any of the arithmetic of the contract, including {IERC20-balanceOf} and {IERC20-transfer}."
      },
      "name()": {
        "details": "Returns the name of the token."
      },
      "symbol()": {
        "details": "Returns the symbol of the token, usually a shorter version of the name."
      },
      "totalSupply()": {
        "details": "See {IERC20-totalSupply}."
      },
      "transfer(address,uint256)": {
        "details": "See {IERC20-transfer}. Requirements: - `to` cannot be the zero address. - the caller must have a balance of at least `value`."
      },
      "transferFrom(address,address,uint256)": {
        "details": "See {IERC20-transferFrom}. Emits an {Approval} event indicating the updated allowance. This is not required by the EIP. See the note at the beginning of {ERC20}. NOTE: Does not update the allowance if the current allowance is the maximum `uint256`. Requirements: - `from` and `to` cannot be the zero address. - `from` must have a balance of at least `value`. - the caller must have allowance for ``from``'s tokens of at least `value`."
      }
    },
    "version": 1
  },
  "userdoc": {
    "kind": "user",
    "methods": {},
    "version": 1
  }
}